{
  "transactions": [
    {
      "hash": "0xc69ecb309afdf045f5557c4984e847321070c8a3463692d74c9756c5bab2d8e6",
      "transactionType": "CREATE",
      "contractName": "DevOpsTools",
      "contractAddress": "0x6979b60226793Eaf1030052FFD9d15c9d92b4B8e",
      "function": null,
      "arguments": null,
      "transaction": {
        "type": "0x02",
        "from": "0x07fbc30a7d564ef72eb0a3318c73853579893b65",
        "gas": "0x19434a",
        "data": "0x61161461003a600b82828239805160001a60731461002d57634e487b7160e01b600052600060045260246000fd5b30600052607381538281f3fe73000000000000000000000000000000000000000030146080604052600436106100565760003560e01c80632aa1c6961461005b5780633a7684631461009b5780633d363fe3146100ce578063e374cdf1146100e1575b600080fd5b6100856040518060400160405280600b81526020016a0b8bd89c9bd85918d85cdd60aa1b81525081565b60405161009291906109c5565b60405180910390f35b6100b6737109709ecfa91a80626ff3989d68f67f5b1dd12d81565b6040516001600160a01b039091168152602001610092565b6100b66100dc366004610b4d565b6100f4565b6100b66100ef366004610bb9565b6104a7565b604051630525e1db60e21b81526000908190819081908190737109709ecfa91a80626ff3989d68f67f5b1dd12d90631497876c90610139908990600390600401610bfd565b600060405180830381865afa158015610156573d6000803e3d6000fd5b505050506040513d6000823e601f3d908101601f1916820160405261017e9190810190610cad565b905060005b81518110156103d95760008282815181106101a0576101a0610df7565b602090810291909101015160405163348051d760e11b8152600481018b905290915061023590737109709ecfa91a80626ff3989d68f67f5b1dd12d90636900a3ae90602401600060405180830381865afa158015610202573d6000803e3d6000fd5b505050506040513d6000823e601f3d908101601f1916820160405261022a9190810190610e0d565b6020830151906104e0565b801561027a575061027a6040518060400160405280600f81526020016e393ab716b630ba32b9ba173539b7b760891b81525082602001516104e090919063ffffffff16565b156103d05760208101516040516360f9bb1160e01b815260019550600091737109709ecfa91a80626ff3989d68f67f5b1dd12d916360f9bb11916102c0916004016109c5565b600060405180830381865afa1580156102dd573d6000803e3d6000fd5b505050506040513d6000823e601f3d908101601f191682016040526103059190810190610e0d565b6040516356eef15b60e11b8152909150600090737109709ecfa91a80626ff3989d68f67f5b1dd12d9063addde2b690610342908590600401610e41565b602060405180830381865afa15801561035f573d6000803e3d6000fd5b505050506040513d601f19601f820116820180604052508101906103839190610e80565b9050868111156103cd576103bf6040518060400160405280600c81526020016b0283937b1b2b9b9b4b7339d160a51b81525084602001516105bf565b6103ca828d8a610608565b97505b50505b50600101610183565b50816104465760405162461bcd60e51b815260206004820152603160248201527f4e6f2072756e2d6c61746573742e6a736f6e2066696c6520666f756e6420666f604482015270391039b832b1b4b334b2b21031b430b4b760791b60648201526084015b60405180910390fd5b6001600160a01b0384161561046157839450505050506104a0565b60405162461bcd60e51b8152602060048201526014602482015273139bc818dbdb9d1c9858dd0819195c1b1bde595960621b604482015260640161043d565b9392505050565b60006104d783836040518060400160405280600b81526020016a0b8bd89c9bd85918d85cdd60aa1b8152506100f4565b90505b92915050565b805182516000918491849111806104f657508151155b15610506576000925050506104da565b60005b815183516105179190610eaf565b81116105b357600160005b835181101561058c5783818151811061053d5761053d610df7565b01602001516001600160f81b031916856105578386610ec2565b8151811061056757610567610df7565b01602001516001600160f81b03191614610584576000915061058c565b600101610522565b5080156105a05760019450505050506104da565b50806105ab81610ed5565b915050610509565b50600095945050505050565b61060482826040516024016105d5929190610eee565b60408051601f198184030181529190526020810180516001600160e01b0316634b5c427760e01b179052610835565b5050565b6000806106446040518060400160405280600e81526020016d242e7472616e73616374696f6e7360901b8152508661085690919063ffffffff16565b6040516314a29a0f60e21b8152909150737109709ecfa91a80626ff3989d68f67f5b1dd12d9063528a683c9061067e908890600401610f1c565b602060405180830381865afa15801561069b573d6000803e3d6000fd5b505050506040513d601f19601f820116820180604052508101906106bf9190610f66565b1561077a576000818060200190518101906106da91906111f5565b905061071c6040518060400160405280601a81526020017f496e7370656374696e67202573207472616e73616374696f6e7300000000000081525082516108d7565b60005b815181101561077357600082828151811061073c5761073c610df7565b6020026020010151905061075d87826060015161091c90919063ffffffff16565b1561076a57806040015195505b5060010161071f565b505061082c565b60008180602001905181019061079091906113de565b90506107d26040518060400160405280601a81526020017f496e7370656374696e67202573207472616e73616374696f6e7300000000000081525082516108d7565b60005b81518110156108295760008282815181106107f2576107f2610df7565b6020026020010151905061081387826060015161091c90919063ffffffff16565b1561082057806040015195505b506001016107d5565b50505b50909392505050565b80516a636f6e736f6c652e6c6f67602083016000808483855afa5050505050565b6040516385940ef160e01b8152606090737109709ecfa91a80626ff3989d68f67f5b1dd12d906385940ef1906108929086908690600401610eee565b600060405180830381865afa1580156108af573d6000803e3d6000fd5b505050506040513d6000823e601f3d908101601f191682016040526104d79190810190610e0d565b61060482826040516024016108ed9291906115a0565b60408051601f198184030181529190526020810180516001600160e01b03166309710a9d60e41b179052610835565b60008160405160200161092f91906115c2565b604051602081830303815290604052805190602001208360405160200161095691906115c2565b6040516020818303038152906040528051906020012014905092915050565b60005b83811015610990578181015183820152602001610978565b50506000910152565b600081518084526109b1816020860160208601610975565b601f01601f19169290920160200192915050565b6020815260006104d76020830184610999565b634e487b7160e01b600052604160045260246000fd5b60405160a081016001600160401b0381118282101715610a1057610a106109d8565b60405290565b604080519081016001600160401b0381118282101715610a1057610a106109d8565b60405160e081016001600160401b0381118282101715610a1057610a106109d8565b60405161014081016001600160401b0381118282101715610a1057610a106109d8565b60405161012081016001600160401b0381118282101715610a1057610a106109d8565b604051601f8201601f191681016001600160401b0381118282101715610ac857610ac86109d8565b604052919050565b60006001600160401b03821115610ae957610ae96109d8565b50601f01601f191660200190565b600082601f830112610b0857600080fd5b8135610b1b610b1682610ad0565b610aa0565b818152846020838601011115610b3057600080fd5b816020850160208301376000918101602001919091529392505050565b600080600060608486031215610b6257600080fd5b83356001600160401b0380821115610b7957600080fd5b610b8587838801610af7565b9450602086013593506040860135915080821115610ba257600080fd5b50610baf86828701610af7565b9150509250925092565b60008060408385031215610bcc57600080fd5b82356001600160401b03811115610be257600080fd5b610bee85828601610af7565b95602094909401359450505050565b604081526000610c106040830185610999565b90506001600160401b03831660208301529392505050565b60006001600160401b03821115610c4157610c416109d8565b5060051b60200190565b600082601f830112610c5c57600080fd5b8151610c6a610b1682610ad0565b818152846020838601011115610c7f57600080fd5b610c90826020830160208701610975565b949350505050565b80518015158114610ca857600080fd5b919050565b60006020808385031215610cc057600080fd5b82516001600160401b0380821115610cd757600080fd5b818501915085601f830112610ceb57600080fd5b8151610cf9610b1682610c28565b81815260059190911b83018401908481019088831115610d1857600080fd5b8585015b83811015610dea57805185811115610d345760008081fd5b860160a0818c03601f1901811315610d4c5760008081fd5b610d546109ee565b8983015188811115610d665760008081fd5b610d748e8c83870101610c4b565b82525060408084015189811115610d8b5760008081fd5b610d998f8d83880101610c4b565b8c840152506060808501518a81168114610db35760008081fd5b80838501525060809150610dc8828601610c98565b90830152610dd7848401610c98565b9082015285525050918601918601610d1c565b5098975050505050505050565b634e487b7160e01b600052603260045260246000fd5b600060208284031215610e1f57600080fd5b81516001600160401b03811115610e3557600080fd5b610c9084828501610c4b565b604081526000610e546040830184610999565b8281036020840152600a81526902e74696d657374616d760b41b60208201526040810191505092915050565b600060208284031215610e9257600080fd5b5051919050565b634e487b7160e01b600052601160045260246000fd5b818103818111156104da576104da610e99565b808201808211156104da576104da610e99565b600060018201610ee757610ee7610e99565b5060010190565b604081526000610f016040830185610999565b8281036020840152610f138185610999565b95945050505050565b604081526000610f2f6040830184610999565b82810360208401526015815274242e7472616e73616374696f6e735b305d2e72706360581b60208201526040810191505092915050565b600060208284031215610f7857600080fd5b6104d782610c98565b600082601f830112610f9257600080fd5b81516020610fa2610b1683610c28565b82815260059290921b84018101918181019086841115610fc157600080fd5b8286015b848110156110005780516001600160401b03811115610fe45760008081fd5b610ff28986838b0101610c4b565b845250918301918301610fc5565b509695505050505050565b80516001600160a01b0381168114610ca857600080fd5b600082601f83011261103357600080fd5b81516020611043610b1683610c28565b828152600592831b850182019282820191908785111561106257600080fd5b8387015b858110156111415780516001600160401b03808211156110865760008081fd5b908901906040828c03601f19018113156110a05760008081fd5b6110a8610a16565b6110b389850161100b565b815281840151838111156110c75760008081fd5b8085019450508c603f8501126110df57600092508283fd5b8884015192506110f1610b1684610c28565b83815292861b8401820192898101908e85111561110e5760008081fd5b948301945b8486101561112c5785518252948a0194908a0190611113565b828b0152508752505050928401928401611066565b5090979650505050505050565b600060e0828403121561116057600080fd5b611168610a38565b905081516001600160401b038082111561118157600080fd5b61118d85838601611022565b835260208401519150808211156111a357600080fd5b506111b084828501610c4b565b6020830152506111c26040830161100b565b6040820152606082015160608201526080820151608082015260a082015160a082015260c082015160c082015292915050565b6000602080838503121561120857600080fd5b82516001600160401b038082111561121f57600080fd5b818501915085601f83011261123357600080fd5b8151611241610b1682610c28565b81815260059190911b8301840190848101908883111561126057600080fd5b8585015b83811015610dea5780518581111561127b57600080fd5b8601610140818c03601f1901121561129257600080fd5b61129a610a5a565b88820151878111156112ab57600080fd5b6112b98d8b83860101610f81565b8252506040820151878111156112ce57600080fd5b6112dc8d8b83860101610c4b565b8a830152506112ed6060830161100b565b604082015260808201518781111561130457600080fd5b6113128d8b83860101610c4b565b60608301525060a08201518781111561132a57600080fd5b6113388d8b83860101610c4b565b60808301525060c082015160a082015261135460e08301610c98565b60c0820152610100808301518881111561136d57600080fd5b61137b8e8c83870101610c4b565b60e084015250610120808401518981111561139557600080fd5b6113a38f8d8388010161114e565b83850152506101408401519150888211156113bd57600080fd5b6113cb8e8c84870101610c4b565b9083015250845250918601918601611264565b600060208083850312156113f157600080fd5b82516001600160401b038082111561140857600080fd5b818501915085601f83011261141c57600080fd5b815161142a610b1682610c28565b81815260059190911b8301840190848101908883111561144957600080fd5b8585015b83811015610dea5780518581111561146457600080fd5b8601610120818c03601f190181131561147c57600080fd5b611484610a7d565b898301518881111561149557600080fd5b6114a38e8c83870101610f81565b8252506040830151888111156114b857600080fd5b6114c68e8c83870101610c4b565b8b830152506114d76060840161100b565b60408201526080830151888111156114ee57600080fd5b6114fc8e8c83870101610c4b565b60608301525060a08301518881111561151457600080fd5b6115228e8c83870101610c4b565b60808301525060c083015160a082015261153e60e08401610c98565b60c082015261010080840151898111156115585760008081fd5b6115668f8d8388010161114e565b60e08401525091830151918883111561157f5760008081fd5b61158d8e8c85870101610c4b565b908201528552505091860191860161144d565b6040815260006115b36040830185610999565b90508260208301529392505050565b600082516115d4818460208701610975565b919091019291505056fea264697066735822122091573a3ee2b60017ad7492d81e3b74d440b69adb66be609cb6b7ca204a9b3db664736f6c63430008180033",
        "nonce": "0x4",
        "accessList": []
      },
      "additionalContracts": [],
      "isFixedGasLimit": false
    },
    {
      "hash": "0xe4b91fd0ac4c4532cf1b499d39fcb743c141b488f97d30cf11b88f9f6f3e0d53",
      "transactionType": "CALL",
      "contractName": null,
      "contractAddress": "0xAE975071Be8F8eE67addBC1A82488F1C24858067",
      "function": "createSubscription()",
      "arguments": [],
      "transaction": {
        "type": "0x02",
        "from": "0x07fbc30a7d564ef72eb0a3318c73853579893b65",
        "to": "0xae975071be8f8ee67addbc1a82488f1c24858067",
        "gas": "0x1558c",
        "value": "0x0",
        "data": "0xa21a23e4",
        "nonce": "0x5",
        "accessList": []
      },
      "additionalContracts": [],
      "isFixedGasLimit": false
    },
    {
      "hash": "0x8744fc9fcba11bd336f3eee5cb860588305e8cad3fd6c2070122a46f4bab96ff",
      "transactionType": "CALL",
      "contractName": null,
      "contractAddress": "0xb0897686c545045aFc77CF20eC7A532E3120E0F1",
      "function": "transferAndCall(address,uint256,bytes)",
      "arguments": [
        "0xAE975071Be8F8eE67addBC1A82488F1C24858067",
        "1800000000000000000",
        "0x0000000000000000000000000000000000000000000000000000000000000467"
      ],
      "transaction": {
        "type": "0x02",
        "from": "0x07fbc30a7d564ef72eb0a3318c73853579893b65",
        "to": "0xb0897686c545045afc77cf20ec7a532e3120e0f1",
        "gas": "0x1b796",
        "value": "0x0",
        "data": "0x4000aea0000000000000000000000000ae975071be8f8ee67addbc1a82488f1c2485806700000000000000000000000000000000000000000000000018fae27693b40000000000000000000000000000000000000000000000000000000000000000006000000000000000000000000000000000000000000000000000000000000000200000000000000000000000000000000000000000000000000000000000000467",
        "nonce": "0x6",
        "accessList": []
      },
      "additionalContracts": [],
      "isFixedGasLimit": false
    },
    {
      "hash": "0x6dd31be053b16b09d9e093845576b020c8ffa48737a0e39530f58f3b2987ccfb",
      "transactionType": "CREATE",
      "contractName": "Raffle",
      "contractAddress": "0xb065dDd508EC99Df7bB47E2D69655641D83Fd347",
      "function": null,
      "arguments": [
        "10000000000000000",
        "30",
        "0xAE975071Be8F8eE67addBC1A82488F1C24858067",
        "0xcc294a196eeeb44da2888d17c0625cc88d70d9760a69d58d853ba6581a9ab0cd",
        "1127",
        "2500000"
      ],
      "transaction": {
        "type": "0x02",
        "from": "0x07fbc30a7d564ef72eb0a3318c73853579893b65",
        "gas": "0x110d14",
        "value": "0x0",
        "data": "0x61016060405234801561001157600080fd5b50604051610f9c380380610f9c83398101604081905261003091610088565b6001600160a01b0393909316608081905260a052336101405260039490945560c09290925260e0919091526001600160401b039091166101005263ffffffff166101205260006001556004805460ff19169055610113565b60008060008060008060c087890312156100a157600080fd5b86516020880151604089015191975095506001600160a01b03811681146100c757600080fd5b6060880151608089015191955093506001600160401b03811681146100eb57600080fd5b60a088015190925063ffffffff8116811461010557600080fd5b809150509295509295509295565b60805160a05160c05160e051610100516101205161014051610e0c610190600039600061082a01526000818161031201526105e30152600081816102d101526105ac015260008181610292015261058401526000818161023501526106fb0152600061062101526000818161038701526103c90152610e0c6000f3fe6080604052600436106100fe5760003560e01c80638b5b9ccc11610095578063c19dd76b11610064578063c19dd76b14610283578063de3d9fb7146102b6578063de8be8e7146102fb578063e55ae4e81461033c578063fe56f5a01461035c57600080fd5b80638b5b9ccc1461020457806391ad27b414610226578063a350861914610259578063b24cc8941461026e57600080fd5b80632cfcc539116100d15780632cfcc5391461017c5780634585e33b14610184578063473f1ddc146101a45780636e04ff0d146101d657600080fd5b806309bc33a714610103578063115cbaf51461012757806312065fe0146101475780631fe543e31461015a575b600080fd5b34801561010f57600080fd5b506003545b6040519081526020015b60405180910390f35b34801561013357600080fd5b5060045460ff1660405161011e9190610a67565b34801561015357600080fd5b5047610114565b34801561016657600080fd5b5061017a610175366004610ac2565b61037c565b005b61017a610409565b34801561019057600080fd5b5061017a61019f366004610b74565b61050f565b3480156101b057600080fd5b506002546001600160a01b03165b6040516001600160a01b03909116815260200161011e565b3480156101e257600080fd5b506101f66101f1366004610be6565b6106c2565b60405161011e929190610c7b565b34801561021057600080fd5b50610219610779565b60405161011e9190610cd4565b34801561023257600080fd5b507f0000000000000000000000000000000000000000000000000000000000000000610114565b34801561026557600080fd5b506101146107db565b34801561027a57600080fd5b50600154610114565b34801561028f57600080fd5b507f0000000000000000000000000000000000000000000000000000000000000000610114565b3480156102c257600080fd5b5060405167ffffffffffffffff7f000000000000000000000000000000000000000000000000000000000000000016815260200161011e565b34801561030757600080fd5b5060405163ffffffff7f000000000000000000000000000000000000000000000000000000000000000016815260200161011e565b34801561034857600080fd5b506101be610357366004610d21565b6107f0565b34801561036857600080fd5b5061017a610377366004610d21565b61081f565b336001600160a01b037f000000000000000000000000000000000000000000000000000000000000000016146103fb5760405163073e64fd60e21b81523360048201526001600160a01b037f00000000000000000000000000000000000000000000000000000000000000001660248201526044015b60405180910390fd5b610405828261086d565b5050565b600260045460ff16600281111561042257610422610a2f565b036104405760405163349289c560e21b815260040160405180910390fd5b6003543410156104635760405163b7b5828760e01b815260040160405180910390fd5b600080546001810182558180527f290decd9548b62a8d60345a988386fc84ba6bc95484008f6362f93160ef3e5630180546001600160a01b03191633179055546002118015906104c95750600060045460ff1660028111156104c7576104c7610a2f565b145b156104e2576004805460ff191660019081179091554290555b60405133907f819fbd717c9d0b421352c5116a644ca68ba176960c33f406f08d98a27370ca2790600090a2565b6000610529604051806020016040528060008152506106c2565b509050806105685760005460045460015447929160ff169061054b9042610d3a565b6040516374bc59e760e01b81526004016103f29493929190610d5b565b6004805460ff191660021781556040516305d3b1d360e41b81527f0000000000000000000000000000000000000000000000000000000000000000918101919091527f000000000000000000000000000000000000000000000000000000000000000067ffffffffffffffff166024820152600360448201527f000000000000000000000000000000000000000000000000000000000000000063ffffffff166064820152600160848201526000906001600160a01b037f00000000000000000000000000000000000000000000000000000000000000001690635d3b1d309060a4016020604051808303816000875af115801561066a573d6000803e3d6000fd5b505050506040513d601f19601f8201168201806040525081019061068e9190610d85565b60405190915081907fcd6e45c8998311cab7e9d4385596cac867e20a0587194b954fa3a731c93ce78b90600090a250505050565b600454600090606090829060ff1660028111156106e1576106e1610a2f565b6001600080546001549290931493504715159260021115917f0000000000000000000000000000000000000000000000000000000000000000906107259042610d3a565b118015610733575060015415155b905080801561073f5750835b80156107485750825b80156107515750815b60408051808201909152600381526203078360ec1b6020820152909890975095505050505050565b606060008054806020026020016040519081016040528092919081815260200182805480156107d157602002820191906000526020600020905b81546001600160a01b031681526001909101906020018083116107b3575b5050505050905090565b6000600154426107eb9190610d3a565b905090565b600080828154811061080457610804610d9e565b6000918252602090912001546001600160a01b031692915050565b336001600160a01b037f00000000000000000000000000000000000000000000000000000000000000001614610868576040516351ed287960e01b815260040160405180910390fd5b600355565b6000805482518390839061088357610883610d9e565b60200260200101516108959190610db4565b905060008082815481106108ab576108ab610d9e565b600091825260208083209190910154600280546001600160a01b0319166001600160a01b0390921691821790556004805460ff191690556001839055604080518481529283019081905291519093506109059291906109b5565b506040516001600160a01b038216907fb112587e57bfa970257f3d54fc52859c6300f6bd7a982462c320fed45c2530ed90600090a26000816001600160a01b03164760405160006040518083038185875af1925050503d8060008114610987576040519150601f19603f3d011682016040523d82523d6000602084013e61098c565b606091505b50509050806109ae57604051631e1873a560e11b815260040160405180910390fd5b5050505050565b828054828255906000526020600020908101928215610a0a579160200282015b82811115610a0a57825182546001600160a01b0319166001600160a01b039091161782556020909201916001909101906109d5565b50610a16929150610a1a565b5090565b5b80821115610a165760008155600101610a1b565b634e487b7160e01b600052602160045260246000fd5b60038110610a6357634e487b7160e01b600052602160045260246000fd5b9052565b60208101610a758284610a45565b92915050565b634e487b7160e01b600052604160045260246000fd5b604051601f8201601f1916810167ffffffffffffffff81118282101715610aba57610aba610a7b565b604052919050565b60008060408385031215610ad557600080fd5b8235915060208084013567ffffffffffffffff80821115610af557600080fd5b818601915086601f830112610b0957600080fd5b813581811115610b1b57610b1b610a7b565b8060051b9150610b2c848301610a91565b8181529183018401918481019089841115610b4657600080fd5b938501935b83851015610b6457843582529385019390850190610b4b565b8096505050505050509250929050565b60008060208385031215610b8757600080fd5b823567ffffffffffffffff80821115610b9f57600080fd5b818501915085601f830112610bb357600080fd5b813581811115610bc257600080fd5b866020828501011115610bd457600080fd5b60209290920196919550909350505050565b60006020808385031215610bf957600080fd5b823567ffffffffffffffff80821115610c1157600080fd5b818501915085601f830112610c2557600080fd5b813581811115610c3757610c37610a7b565b610c49601f8201601f19168501610a91565b91508082528684828501011115610c5f57600080fd5b8084840185840137600090820190930192909252509392505050565b82151581526000602060406020840152835180604085015260005b81811015610cb257858101830151858201606001528201610c96565b506000606082860101526060601f19601f830116850101925050509392505050565b6020808252825182820181905260009190848201906040850190845b81811015610d155783516001600160a01b031683529284019291840191600101610cf0565b50909695505050505050565b600060208284031215610d3357600080fd5b5035919050565b81810381811115610a7557634e487b7160e01b600052601160045260246000fd5b8481526020810184905260808101610d766040830185610a45565b82606083015295945050505050565b600060208284031215610d9757600080fd5b5051919050565b634e487b7160e01b600052603260045260246000fd5b600082610dd157634e487b7160e01b600052601260045260246000fd5b50069056fea2646970667358221220faf6a4a3860436c98ee7a5fe818585a9470ec3b38dfdcf6e7a5c654f628e150364736f6c63430008180033000000000000000000000000000000000000000000000000002386f26fc10000000000000000000000000000000000000000000000000000000000000000001e000000000000000000000000ae975071be8f8ee67addbc1a82488f1c24858067cc294a196eeeb44da2888d17c0625cc88d70d9760a69d58d853ba6581a9ab0cd000000000000000000000000000000000000000000000000000000000000046700000000000000000000000000000000000000000000000000000000002625a0",
        "nonce": "0x7",
        "accessList": []
      },
      "additionalContracts": [],
      "isFixedGasLimit": false
    },
    {
      "hash": "0xb3f0fc7654022df11f6f3d808c5d195ec96724fb9cb93f1e1e9059f1d949f1ce",
      "transactionType": "CALL",
      "contractName": null,
      "contractAddress": "0xAE975071Be8F8eE67addBC1A82488F1C24858067",
      "function": "addConsumer(uint64,address)",
      "arguments": [
        "1127",
        "0xb065dDd508EC99Df7bB47E2D69655641D83Fd347"
      ],
      "transaction": {
        "type": "0x02",
        "from": "0x07fbc30a7d564ef72eb0a3318c73853579893b65",
        "to": "0xae975071be8f8ee67addbc1a82488f1c24858067",
        "gas": "0x21eb0",
        "value": "0x0",
        "data": "0x7341c10c0000000000000000000000000000000000000000000000000000000000000467000000000000000000000000b065ddd508ec99df7bb47e2d69655641d83fd347",
        "nonce": "0x8",
        "accessList": []
      },
      "additionalContracts": [],
      "isFixedGasLimit": false
    }
  ],
  "receipts": [
    {
      "transactionHash": "0xc69ecb309afdf045f5557c4984e847321070c8a3463692d74c9756c5bab2d8e6",
      "transactionIndex": "0x63",
      "blockHash": "0x9c4cae5f59cac70e35234bb48377020cbaf3b6378618c78637214d51cef177bc",
      "blockNumber": "0x344e384",
      "from": "0x07FBc30a7d564EF72Eb0A3318c73853579893B65",
      "to": null,
      "cumulativeGasUsed": "0x9b5fb9",
      "gasUsed": "0x13703d",
      "contractAddress": "0x6979b60226793Eaf1030052FFD9d15c9d92b4B8e",
      "logs": [
        {
          "address": "0x0000000000000000000000000000000000001010",
          "topics": [
            "0x4dfe1bbbcf077ddc3e01291eea2d5c70c2b422b415d95645b9adcfd678cb1d63",
            "0x0000000000000000000000000000000000000000000000000000000000001010",
            "0x00000000000000000000000007fbc30a7d564ef72eb0a3318c73853579893b65",
            "0x000000000000000000000000794e44d1334a56fea7f4df12633b88820d0c5888"
          ],
          "data": "0x00000000000000000000000000000000000000000000000000920a62c676784e000000000000000000000000000000000000000000000008ab5b5f91d223b8f30000000000000000000000000000000000000000000001265421c02eec1b3742000000000000000000000000000000000000000000000008aac9552f0bad40a500000000000000000000000000000000000000000000012654b3ca91b291af90",
          "blockHash": "0x9c4cae5f59cac70e35234bb48377020cbaf3b6378618c78637214d51cef177bc",
          "blockNumber": "0x344e384",
          "transactionHash": "0xc69ecb309afdf045f5557c4984e847321070c8a3463692d74c9756c5bab2d8e6",
          "transactionIndex": "0x63",
          "logIndex": "0x111",
          "removed": false
        }
      ],
      "status": "0x1",
      "logsBloom": "0x00000004000000000000000000000000000000000000000000000000000000000000000000001000000000000000000000008000000000000000000000000000000000000000000000000000000000800000000000000000000100020000000000000000000000000000000000000000000000000000000080000000000000000000000000000000000000000000000000000000000000000000000000000000200000000000000000000000000000000000000000000000000000000000004000000040000000000001000000000000000000000000000000100000000000000000000000000000000080000000000000000000000000000000000020100000",
      "type": "0x2",
      "effectiveGasPrice": "0x2b5cabc804"
    },
    {
      "transactionHash": "0xe4b91fd0ac4c4532cf1b499d39fcb743c141b488f97d30cf11b88f9f6f3e0d53",
      "transactionIndex": "0x64",
      "blockHash": "0x9c4cae5f59cac70e35234bb48377020cbaf3b6378618c78637214d51cef177bc",
      "blockNumber": "0x344e384",
      "from": "0x07FBc30a7d564EF72Eb0A3318c73853579893B65",
      "to": "0xAE975071Be8F8eE67addBC1A82488F1C24858067",
      "cumulativeGasUsed": "0x9c4943",
      "gasUsed": "0xe98a",
      "contractAddress": null,
      "logs": [
        {
          "address": "0xAE975071Be8F8eE67addBC1A82488F1C24858067",
          "topics": [
            "0x464722b4166576d3dcbba877b999bc35cf911f4eaf434b7eba68fa113951d0bf",
            "0x0000000000000000000000000000000000000000000000000000000000000467"
          ],
          "data": "0x00000000000000000000000007fbc30a7d564ef72eb0a3318c73853579893b65",
          "blockHash": "0x9c4cae5f59cac70e35234bb48377020cbaf3b6378618c78637214d51cef177bc",
          "blockNumber": "0x344e384",
          "transactionHash": "0xe4b91fd0ac4c4532cf1b499d39fcb743c141b488f97d30cf11b88f9f6f3e0d53",
          "transactionIndex": "0x64",
          "logIndex": "0x112",
          "removed": false
        },
        {
          "address": "0x0000000000000000000000000000000000001010",
          "topics": [
            "0x4dfe1bbbcf077ddc3e01291eea2d5c70c2b422b415d95645b9adcfd678cb1d63",
            "0x0000000000000000000000000000000000000000000000000000000000001010",
            "0x00000000000000000000000007fbc30a7d564ef72eb0a3318c73853579893b65",
            "0x000000000000000000000000794e44d1334a56fea7f4df12633b88820d0c5888"
          ],
          "data": "0x0000000000000000000000000000000000000000000000000006da931bb88cfc000000000000000000000000000000000000000000000008a8107bf1bd674fff00000000000000000000000000000000000000000000012654b3ca91b291af90000000000000000000000000000000000000000000000008a809a15ea1aec30300000000000000000000000000000000000000000000012654baa524ce4a3c8c",
          "blockHash": "0x9c4cae5f59cac70e35234bb48377020cbaf3b6378618c78637214d51cef177bc",
          "blockNumber": "0x344e384",
          "transactionHash": "0xe4b91fd0ac4c4532cf1b499d39fcb743c141b488f97d30cf11b88f9f6f3e0d53",
          "transactionIndex": "0x64",
          "logIndex": "0x113",
          "removed": false
        }
      ],
      "status": "0x1",
      "logsBloom": "0x00000004000000000000010000000000200000000000000000000000000000000100000000201000000000000000000000008000000000000000000000000000000000000000000000000000000000800000000000000000000100020000000000000000000000000000000000000000000000000001000080000000000100000000000000000000000100000000000000000000000000000000000000000000200000000000000000000000000000000000000000000000000000000000004000000040000000200001000000000000000000000400000000100000000000000000000000000000000080000000000000000000000000000000000020100000",
      "type": "0x2",
      "effectiveGasPrice": "0x2b5cabc804"
    },
    {
      "transactionHash": "0x8744fc9fcba11bd336f3eee5cb860588305e8cad3fd6c2070122a46f4bab96ff",
      "transactionIndex": "0x65",
      "blockHash": "0x9c4cae5f59cac70e35234bb48377020cbaf3b6378618c78637214d51cef177bc",
      "blockNumber": "0x344e384",
      "from": "0x07FBc30a7d564EF72Eb0A3318c73853579893B65",
      "to": "0xb0897686c545045aFc77CF20eC7A532E3120E0F1",
      "cumulativeGasUsed": "0x9d75d6",
      "gasUsed": "0x12c93",
      "contractAddress": null,
      "logs": [
        {
          "address": "0xb0897686c545045aFc77CF20eC7A532E3120E0F1",
          "topics": [
            "0xddf252ad1be2c89b69c2b068fc378daa952ba7f163c4a11628f55a4df523b3ef",
            "0x00000000000000000000000007fbc30a7d564ef72eb0a3318c73853579893b65",
            "0x000000000000000000000000ae975071be8f8ee67addbc1a82488f1c24858067"
          ],
          "data": "0x00000000000000000000000000000000000000000000000018fae27693b40000",
          "blockHash": "0x9c4cae5f59cac70e35234bb48377020cbaf3b6378618c78637214d51cef177bc",
          "blockNumber": "0x344e384",
          "transactionHash": "0x8744fc9fcba11bd336f3eee5cb860588305e8cad3fd6c2070122a46f4bab96ff",
          "transactionIndex": "0x65",
          "logIndex": "0x114",
          "removed": false
        },
        {
          "address": "0xb0897686c545045aFc77CF20eC7A532E3120E0F1",
          "topics": [
            "0xe19260aff97b920c7df27010903aeb9c8d2be5d310a2c67824cf3f15396e4c16",
            "0x00000000000000000000000007fbc30a7d564ef72eb0a3318c73853579893b65",
            "0x000000000000000000000000ae975071be8f8ee67addbc1a82488f1c24858067"
          ],
          "data": "0x00000000000000000000000000000000000000000000000018fae27693b40000000000000000000000000000000000000000000000000000000000000000004000000000000000000000000000000000000000000000000000000000000000200000000000000000000000000000000000000000000000000000000000000467",
          "blockHash": "0x9c4cae5f59cac70e35234bb48377020cbaf3b6378618c78637214d51cef177bc",
          "blockNumber": "0x344e384",
          "transactionHash": "0x8744fc9fcba11bd336f3eee5cb860588305e8cad3fd6c2070122a46f4bab96ff",
          "transactionIndex": "0x65",
          "logIndex": "0x115",
          "removed": false
        },
        {
          "address": "0xAE975071Be8F8eE67addBC1A82488F1C24858067",
          "topics": [
            "0xd39ec07f4e209f627a4c427971473820dc129761ba28de8906bd56f57101d4f8",
            "0x0000000000000000000000000000000000000000000000000000000000000467"
          ],
          "data": "0x000000000000000000000000000000000000000000000000000000000000000000000000000000000000000000000000000000000000000018fae27693b40000",
          "blockHash": "0x9c4cae5f59cac70e35234bb48377020cbaf3b6378618c78637214d51cef177bc",
          "blockNumber": "0x344e384",
          "transactionHash": "0x8744fc9fcba11bd336f3eee5cb860588305e8cad3fd6c2070122a46f4bab96ff",
          "transactionIndex": "0x65",
          "logIndex": "0x116",
          "removed": false
        },
        {
          "address": "0x0000000000000000000000000000000000001010",
          "topics": [
            "0x4dfe1bbbcf077ddc3e01291eea2d5c70c2b422b415d95645b9adcfd678cb1d63",
            "0x0000000000000000000000000000000000000000000000000000000000001010",
            "0x00000000000000000000000007fbc30a7d564ef72eb0a3318c73853579893b65",
            "0x000000000000000000000000794e44d1334a56fea7f4df12633b88820d0c5888"
          ],
          "data": "0x0000000000000000000000000000000000000000000000000008d23561fc0292000000000000000000000000000000000000000000000008a7e8ed396fc1d9d700000000000000000000000000000000000000000000012654baa524ce4a3c8c000000000000000000000000000000000000000000000008a7e01b040dc5d74500000000000000000000000000000000000000000000012654c3775a30463f1e",
          "blockHash": "0x9c4cae5f59cac70e35234bb48377020cbaf3b6378618c78637214d51cef177bc",
          "blockNumber": "0x344e384",
          "transactionHash": "0x8744fc9fcba11bd336f3eee5cb860588305e8cad3fd6c2070122a46f4bab96ff",
          "transactionIndex": "0x65",
          "logIndex": "0x117",
          "removed": false
        }
      ],
      "status": "0x1",
      "logsBloom": "0x00000004000000000000000000000000200000000000000200000000030000000000000000201000000000000000008000008000000000000002000000000000000000000000000000000008000000800000000000000000000120020000000000000000000000000000000000000000000080000001000080000010000100000000000000000000000100000000000010000020000000000000200000000000200000000000000000000000000000000000000000000000000420000000004000000042000000000001000000000000000000000400000000100000000000000000000000000000000080000000000000000000000000000000000020100000",
      "type": "0x2",
      "effectiveGasPrice": "0x2b5cabc804"
    },
    {
      "transactionHash": "0x6dd31be053b16b09d9e093845576b020c8ffa48737a0e39530f58f3b2987ccfb",
      "transactionIndex": "0x66",
      "blockHash": "0x9c4cae5f59cac70e35234bb48377020cbaf3b6378618c78637214d51cef177bc",
      "blockNumber": "0x344e384",
      "from": "0x07FBc30a7d564EF72Eb0A3318c73853579893B65",
      "to": null,
      "cumulativeGasUsed": "0xaa949d",
      "gasUsed": "0xd1ec7",
      "contractAddress": "0xb065dDd508EC99Df7bB47E2D69655641D83Fd347",
      "logs": [
        {
          "address": "0x0000000000000000000000000000000000001010",
          "topics": [
            "0x4dfe1bbbcf077ddc3e01291eea2d5c70c2b422b415d95645b9adcfd678cb1d63",
            "0x0000000000000000000000000000000000000000000000000000000000001010",
            "0x00000000000000000000000007fbc30a7d564ef72eb0a3318c73853579893b65",
            "0x000000000000000000000000794e44d1334a56fea7f4df12633b88820d0c5888"
          ],
          "data": "0x0000000000000000000000000000000000000000000000000062926e8d0d834a000000000000000000000000000000000000000000000008a7b603b9eab94f8b00000000000000000000000000000000000000000000012654c3775a30463f1e000000000000000000000000000000000000000000000008a753714b5dabcc41000000000000000000000000000000000000000000000126552609c8bd53c268",
          "blockHash": "0x9c4cae5f59cac70e35234bb48377020cbaf3b6378618c78637214d51cef177bc",
          "blockNumber": "0x344e384",
          "transactionHash": "0x6dd31be053b16b09d9e093845576b020c8ffa48737a0e39530f58f3b2987ccfb",
          "transactionIndex": "0x66",
          "logIndex": "0x118",
          "removed": false
        }
      ],
      "status": "0x1",
      "logsBloom": "0x00000004000000000000000000000000000000000000000000000000000000000000000000001000000000000000000000008000000000000000000000000000000000000000000000000000000000800000000000000000000100020000000000000000000000000000000000000000000000000000000080000000000000000000000000000000000000000000000000000000000000000000000000000000200000000000000000000000000000000000000000000000000000000000004000000040000000000001000000000000000000000000000000100000000000000000000000000000000080000000000000000000000000000000000020100000",
      "type": "0x2",
      "effectiveGasPrice": "0x2b5cabc804"
    },
    {
      "transactionHash": "0xb3f0fc7654022df11f6f3d808c5d195ec96724fb9cb93f1e1e9059f1d949f1ce",
      "transactionIndex": "0x67",
      "blockHash": "0x9c4cae5f59cac70e35234bb48377020cbaf3b6378618c78637214d51cef177bc",
      "blockNumber": "0x344e384",
      "from": "0x07FBc30a7d564EF72Eb0A3318c73853579893B65",
      "to": "0xAE975071Be8F8eE67addBC1A82488F1C24858067",
      "cumulativeGasUsed": "0xac07af",
      "gasUsed": "0x17312",
      "contractAddress": null,
      "logs": [
        {
          "address": "0xAE975071Be8F8eE67addBC1A82488F1C24858067",
          "topics": [
            "0x43dc749a04ac8fb825cbd514f7c0e13f13bc6f2ee66043b76629d51776cff8e0",
            "0x0000000000000000000000000000000000000000000000000000000000000467"
          ],
          "data": "0x000000000000000000000000b065ddd508ec99df7bb47e2d69655641d83fd347",
          "blockHash": "0x9c4cae5f59cac70e35234bb48377020cbaf3b6378618c78637214d51cef177bc",
          "blockNumber": "0x344e384",
          "transactionHash": "0xb3f0fc7654022df11f6f3d808c5d195ec96724fb9cb93f1e1e9059f1d949f1ce",
          "transactionIndex": "0x67",
          "logIndex": "0x119",
          "removed": false
        },
        {
          "address": "0x0000000000000000000000000000000000001010",
          "topics": [
            "0x4dfe1bbbcf077ddc3e01291eea2d5c70c2b422b415d95645b9adcfd678cb1d63",
            "0x0000000000000000000000000000000000000000000000000000000000001010",
            "0x00000000000000000000000007fbc30a7d564ef72eb0a3318c73853579893b65",
            "0x000000000000000000000000794e44d1334a56fea7f4df12633b88820d0c5888"
          ],
          "data": "0x000000000000000000000000000000000000000000000000000ae3d828a5592c000000000000000000000000000000000000000000000008a57d186f978c5c6f000000000000000000000000000000000000000000000126552609c8bd53c268000000000000000000000000000000000000000000000008a57234976ee703430000000000000000000000000000000000000000000001265530eda0e5f91b94",
          "blockHash": "0x9c4cae5f59cac70e35234bb48377020cbaf3b6378618c78637214d51cef177bc",
          "blockNumber": "0x344e384",
          "transactionHash": "0xb3f0fc7654022df11f6f3d808c5d195ec96724fb9cb93f1e1e9059f1d949f1ce",
          "transactionIndex": "0x67",
          "logIndex": "0x11a",
          "removed": false
        }
      ],
      "status": "0x1",
      "logsBloom": "0x00000004000000000000000000000000200000000000000000000000000000000000000000201000000000000000000000008000000000000000000000000000000000000000000000000000000000800000000000000000000100020000000000000000000080000000000000000000000000000001000080000000000100000000000000000000000100000000000000000000000000000000000000000000200000000000000000000080000000000000000000000000000000000000004000000040000000000001000000000000000000000400000000120000000000000000000000000000000080000000000000000000000000000000000020100000",
      "type": "0x2",
      "effectiveGasPrice": "0x2b5cabc804"
    }
  ],
  "libraries": [
    "lib/foundry-devops/src/DevOpsTools.sol:DevOpsTools:0x6979b60226793Eaf1030052FFD9d15c9d92b4B8e"
  ],
  "pending": [],
  "returns": {
    "0": {
      "internal_type": "contract Raffle",
      "value": "0xb065dDd508EC99Df7bB47E2D69655641D83Fd347"
    },
    "1": {
      "internal_type": "contract HelperConfig",
      "value": "0xC7f2Cf4845C6db0e1a1e91ED41Bcd0FcC1b0E141"
    }
  },
  "timestamp": 1710865596,
  "chain": 137,
  "commit": "965b656"
}