{
  "transactions": [
    {
      "hash": "0xd24b548daafb8e2fa002a0dccb6e1537568e9e60803a9eebb84aa309b9a8c90a",
      "transactionType": "CREATE",
      "contractName": "DevOpsTools",
      "contractAddress": "0xe1bb27132F53Abb542D3Acb79bDDc482F5e46d85",
      "function": null,
      "arguments": null,
      "transaction": {
        "type": "0x02",
        "from": "0xaf624715303fcdec70e915b6e8c102428f657560",
        "gas": "0x19435a",
        "data": "0x61161461003a600b82828239805160001a60731461002d57634e487b7160e01b600052600060045260246000fd5b30600052607381538281f3fe73000000000000000000000000000000000000000030146080604052600436106100565760003560e01c80632aa1c6961461005b5780633a7684631461009b5780633d363fe3146100ce578063e374cdf1146100e1575b600080fd5b6100856040518060400160405280600b81526020016a0b8bd89c9bd85918d85cdd60aa1b81525081565b60405161009291906109c5565b60405180910390f35b6100b6737109709ecfa91a80626ff3989d68f67f5b1dd12d81565b6040516001600160a01b039091168152602001610092565b6100b66100dc366004610b4d565b6100f4565b6100b66100ef366004610bb9565b6104a7565b604051630525e1db60e21b81526000908190819081908190737109709ecfa91a80626ff3989d68f67f5b1dd12d90631497876c90610139908990600390600401610bfd565b600060405180830381865afa158015610156573d6000803e3d6000fd5b505050506040513d6000823e601f3d908101601f1916820160405261017e9190810190610cad565b905060005b81518110156103d95760008282815181106101a0576101a0610df7565b602090810291909101015160405163348051d760e11b8152600481018b905290915061023590737109709ecfa91a80626ff3989d68f67f5b1dd12d90636900a3ae90602401600060405180830381865afa158015610202573d6000803e3d6000fd5b505050506040513d6000823e601f3d908101601f1916820160405261022a9190810190610e0d565b6020830151906104e0565b801561027a575061027a6040518060400160405280600f81526020016e393ab716b630ba32b9ba173539b7b760891b81525082602001516104e090919063ffffffff16565b156103d05760208101516040516360f9bb1160e01b815260019550600091737109709ecfa91a80626ff3989d68f67f5b1dd12d916360f9bb11916102c0916004016109c5565b600060405180830381865afa1580156102dd573d6000803e3d6000fd5b505050506040513d6000823e601f3d908101601f191682016040526103059190810190610e0d565b6040516356eef15b60e11b8152909150600090737109709ecfa91a80626ff3989d68f67f5b1dd12d9063addde2b690610342908590600401610e41565b602060405180830381865afa15801561035f573d6000803e3d6000fd5b505050506040513d601f19601f820116820180604052508101906103839190610e80565b9050868111156103cd576103bf6040518060400160405280600c81526020016b0283937b1b2b9b9b4b7339d160a51b81525084602001516105bf565b6103ca828d8a610608565b97505b50505b50600101610183565b50816104465760405162461bcd60e51b815260206004820152603160248201527f4e6f2072756e2d6c61746573742e6a736f6e2066696c6520666f756e6420666f604482015270391039b832b1b4b334b2b21031b430b4b760791b60648201526084015b60405180910390fd5b6001600160a01b0384161561046157839450505050506104a0565b60405162461bcd60e51b8152602060048201526014602482015273139bc818dbdb9d1c9858dd0819195c1b1bde595960621b604482015260640161043d565b9392505050565b60006104d783836040518060400160405280600b81526020016a0b8bd89c9bd85918d85cdd60aa1b8152506100f4565b90505b92915050565b805182516000918491849111806104f657508151155b15610506576000925050506104da565b60005b815183516105179190610eaf565b81116105b357600160005b835181101561058c5783818151811061053d5761053d610df7565b01602001516001600160f81b031916856105578386610ec2565b8151811061056757610567610df7565b01602001516001600160f81b03191614610584576000915061058c565b600101610522565b5080156105a05760019450505050506104da565b50806105ab81610ed5565b915050610509565b50600095945050505050565b61060482826040516024016105d5929190610eee565b60408051601f198184030181529190526020810180516001600160e01b0316634b5c427760e01b179052610835565b5050565b6000806106446040518060400160405280600e81526020016d242e7472616e73616374696f6e7360901b8152508661085690919063ffffffff16565b6040516314a29a0f60e21b8152909150737109709ecfa91a80626ff3989d68f67f5b1dd12d9063528a683c9061067e908890600401610f1c565b602060405180830381865afa15801561069b573d6000803e3d6000fd5b505050506040513d601f19601f820116820180604052508101906106bf9190610f66565b1561077a576000818060200190518101906106da91906111f5565b905061071c6040518060400160405280601a81526020017f496e7370656374696e67202573207472616e73616374696f6e7300000000000081525082516108d7565b60005b815181101561077357600082828151811061073c5761073c610df7565b6020026020010151905061075d87826060015161091c90919063ffffffff16565b1561076a57806040015195505b5060010161071f565b505061082c565b60008180602001905181019061079091906113de565b90506107d26040518060400160405280601a81526020017f496e7370656374696e67202573207472616e73616374696f6e7300000000000081525082516108d7565b60005b81518110156108295760008282815181106107f2576107f2610df7565b6020026020010151905061081387826060015161091c90919063ffffffff16565b1561082057806040015195505b506001016107d5565b50505b50909392505050565b80516a636f6e736f6c652e6c6f67602083016000808483855afa5050505050565b6040516385940ef160e01b8152606090737109709ecfa91a80626ff3989d68f67f5b1dd12d906385940ef1906108929086908690600401610eee565b600060405180830381865afa1580156108af573d6000803e3d6000fd5b505050506040513d6000823e601f3d908101601f191682016040526104d79190810190610e0d565b61060482826040516024016108ed9291906115a0565b60408051601f198184030181529190526020810180516001600160e01b03166309710a9d60e41b179052610835565b60008160405160200161092f91906115c2565b604051602081830303815290604052805190602001208360405160200161095691906115c2565b6040516020818303038152906040528051906020012014905092915050565b60005b83811015610990578181015183820152602001610978565b50506000910152565b600081518084526109b1816020860160208601610975565b601f01601f19169290920160200192915050565b6020815260006104d76020830184610999565b634e487b7160e01b600052604160045260246000fd5b60405160a081016001600160401b0381118282101715610a1057610a106109d8565b60405290565b604080519081016001600160401b0381118282101715610a1057610a106109d8565b60405160e081016001600160401b0381118282101715610a1057610a106109d8565b60405161014081016001600160401b0381118282101715610a1057610a106109d8565b60405161012081016001600160401b0381118282101715610a1057610a106109d8565b604051601f8201601f191681016001600160401b0381118282101715610ac857610ac86109d8565b604052919050565b60006001600160401b03821115610ae957610ae96109d8565b50601f01601f191660200190565b600082601f830112610b0857600080fd5b8135610b1b610b1682610ad0565b610aa0565b818152846020838601011115610b3057600080fd5b816020850160208301376000918101602001919091529392505050565b600080600060608486031215610b6257600080fd5b83356001600160401b0380821115610b7957600080fd5b610b8587838801610af7565b9450602086013593506040860135915080821115610ba257600080fd5b50610baf86828701610af7565b9150509250925092565b60008060408385031215610bcc57600080fd5b82356001600160401b03811115610be257600080fd5b610bee85828601610af7565b95602094909401359450505050565b604081526000610c106040830185610999565b90506001600160401b03831660208301529392505050565b60006001600160401b03821115610c4157610c416109d8565b5060051b60200190565b600082601f830112610c5c57600080fd5b8151610c6a610b1682610ad0565b818152846020838601011115610c7f57600080fd5b610c90826020830160208701610975565b949350505050565b80518015158114610ca857600080fd5b919050565b60006020808385031215610cc057600080fd5b82516001600160401b0380821115610cd757600080fd5b818501915085601f830112610ceb57600080fd5b8151610cf9610b1682610c28565b81815260059190911b83018401908481019088831115610d1857600080fd5b8585015b83811015610dea57805185811115610d345760008081fd5b860160a0818c03601f1901811315610d4c5760008081fd5b610d546109ee565b8983015188811115610d665760008081fd5b610d748e8c83870101610c4b565b82525060408084015189811115610d8b5760008081fd5b610d998f8d83880101610c4b565b8c840152506060808501518a81168114610db35760008081fd5b80838501525060809150610dc8828601610c98565b90830152610dd7848401610c98565b9082015285525050918601918601610d1c565b5098975050505050505050565b634e487b7160e01b600052603260045260246000fd5b600060208284031215610e1f57600080fd5b81516001600160401b03811115610e3557600080fd5b610c9084828501610c4b565b604081526000610e546040830184610999565b8281036020840152600a81526902e74696d657374616d760b41b60208201526040810191505092915050565b600060208284031215610e9257600080fd5b5051919050565b634e487b7160e01b600052601160045260246000fd5b818103818111156104da576104da610e99565b808201808211156104da576104da610e99565b600060018201610ee757610ee7610e99565b5060010190565b604081526000610f016040830185610999565b8281036020840152610f138185610999565b95945050505050565b604081526000610f2f6040830184610999565b82810360208401526015815274242e7472616e73616374696f6e735b305d2e72706360581b60208201526040810191505092915050565b600060208284031215610f7857600080fd5b6104d782610c98565b600082601f830112610f9257600080fd5b81516020610fa2610b1683610c28565b82815260059290921b84018101918181019086841115610fc157600080fd5b8286015b848110156110005780516001600160401b03811115610fe45760008081fd5b610ff28986838b0101610c4b565b845250918301918301610fc5565b509695505050505050565b80516001600160a01b0381168114610ca857600080fd5b600082601f83011261103357600080fd5b81516020611043610b1683610c28565b828152600592831b850182019282820191908785111561106257600080fd5b8387015b858110156111415780516001600160401b03808211156110865760008081fd5b908901906040828c03601f19018113156110a05760008081fd5b6110a8610a16565b6110b389850161100b565b815281840151838111156110c75760008081fd5b8085019450508c603f8501126110df57600092508283fd5b8884015192506110f1610b1684610c28565b83815292861b8401820192898101908e85111561110e5760008081fd5b948301945b8486101561112c5785518252948a0194908a0190611113565b828b0152508752505050928401928401611066565b5090979650505050505050565b600060e0828403121561116057600080fd5b611168610a38565b905081516001600160401b038082111561118157600080fd5b61118d85838601611022565b835260208401519150808211156111a357600080fd5b506111b084828501610c4b565b6020830152506111c26040830161100b565b6040820152606082015160608201526080820151608082015260a082015160a082015260c082015160c082015292915050565b6000602080838503121561120857600080fd5b82516001600160401b038082111561121f57600080fd5b818501915085601f83011261123357600080fd5b8151611241610b1682610c28565b81815260059190911b8301840190848101908883111561126057600080fd5b8585015b83811015610dea5780518581111561127b57600080fd5b8601610140818c03601f1901121561129257600080fd5b61129a610a5a565b88820151878111156112ab57600080fd5b6112b98d8b83860101610f81565b8252506040820151878111156112ce57600080fd5b6112dc8d8b83860101610c4b565b8a830152506112ed6060830161100b565b604082015260808201518781111561130457600080fd5b6113128d8b83860101610c4b565b60608301525060a08201518781111561132a57600080fd5b6113388d8b83860101610c4b565b60808301525060c082015160a082015261135460e08301610c98565b60c0820152610100808301518881111561136d57600080fd5b61137b8e8c83870101610c4b565b60e084015250610120808401518981111561139557600080fd5b6113a38f8d8388010161114e565b83850152506101408401519150888211156113bd57600080fd5b6113cb8e8c84870101610c4b565b9083015250845250918601918601611264565b600060208083850312156113f157600080fd5b82516001600160401b038082111561140857600080fd5b818501915085601f83011261141c57600080fd5b815161142a610b1682610c28565b81815260059190911b8301840190848101908883111561144957600080fd5b8585015b83811015610dea5780518581111561146457600080fd5b8601610120818c03601f190181131561147c57600080fd5b611484610a7d565b898301518881111561149557600080fd5b6114a38e8c83870101610f81565b8252506040830151888111156114b857600080fd5b6114c68e8c83870101610c4b565b8b830152506114d76060840161100b565b60408201526080830151888111156114ee57600080fd5b6114fc8e8c83870101610c4b565b60608301525060a08301518881111561151457600080fd5b6115228e8c83870101610c4b565b60808301525060c083015160a082015261153e60e08401610c98565b60c082015261010080840151898111156115585760008081fd5b6115668f8d8388010161114e565b60e08401525091830151918883111561157f5760008081fd5b61158d8e8c85870101610c4b565b908201528552505091860191860161144d565b6040815260006115b36040830185610999565b90508260208301529392505050565b600082516115d4818460208701610975565b919091019291505056fea2646970667358221220926bc6282f0a97a5f47c791b9a37bf6c2f1c1e9d4db470e92638a395646793ba64736f6c63430008180033",
        "nonce": "0x12",
        "accessList": []
      },
      "additionalContracts": [],
      "isFixedGasLimit": false
    },
    {
      "hash": "0x8887e59a0541036f9244e7d1ae94677c8f161f86b39e3d7e4760e8e74988f430",
      "transactionType": "CALL",
      "contractName": null,
      "contractAddress": "0x7a1BaC17Ccc5b313516C5E16fb24f7659aA5ebed",
      "function": "createSubscription()",
      "arguments": [],
      "transaction": {
        "type": "0x02",
        "from": "0xaf624715303fcdec70e915b6e8c102428f657560",
        "to": "0x7a1bac17ccc5b313516c5e16fb24f7659aa5ebed",
        "gas": "0x1558c",
        "value": "0x0",
        "data": "0xa21a23e4",
        "nonce": "0x13",
        "accessList": []
      },
      "additionalContracts": [],
      "isFixedGasLimit": false
    },
    {
      "hash": "0xd1b824f89e51541a54ec05ed533fcf1cf57cc89b8a08dcea96fea200965f1ca0",
      "transactionType": "CALL",
      "contractName": "LinkToken",
      "contractAddress": "0x326C977E6efc84E512bB9C30f76E30c160eD06FB",
      "function": "transferAndCall(address,uint256,bytes)",
      "arguments": [
        "0x7a1BaC17Ccc5b313516C5E16fb24f7659aA5ebed",
        "5000000000000000000",
        "0x0000000000000000000000000000000000000000000000000000000000001d31"
      ],
      "transaction": {
        "type": "0x02",
        "from": "0xaf624715303fcdec70e915b6e8c102428f657560",
        "to": "0x326c977e6efc84e512bb9c30f76e30c160ed06fb",
        "gas": "0x1b456",
        "value": "0x0",
        "data": "0x4000aea00000000000000000000000007a1bac17ccc5b313516c5e16fb24f7659aa5ebed0000000000000000000000000000000000000000000000004563918244f40000000000000000000000000000000000000000000000000000000000000000006000000000000000000000000000000000000000000000000000000000000000200000000000000000000000000000000000000000000000000000000000001d31",
        "nonce": "0x14",
        "accessList": []
      },
      "additionalContracts": [],
      "isFixedGasLimit": false
    },
    {
      "hash": "0x65ba117edd288cbffba40a0b6ab10771ccac5438d56016bb1e94499705dda9ec",
      "transactionType": "CREATE",
      "contractName": "Raffle",
      "contractAddress": "0xC558b2592943cD46063Bf316F6bF238BA165588C",
      "function": null,
      "arguments": [
        "10000000000000000",
        "30",
        "0x7a1BaC17Ccc5b313516C5E16fb24f7659aA5ebed",
        "0x4b09e658ed251bcafeebbc69400383d49f344ace09b9576fe248bb02c003fe9f",
        "7473",
        "2500000"
      ],
      "transaction": {
        "type": "0x02",
        "from": "0xaf624715303fcdec70e915b6e8c102428f657560",
        "gas": "0x104239",
        "value": "0x0",
        "data": "0x61016060405234801561001157600080fd5b50604051610ef3380380610ef383398101604081905261003091610086565b6001600160a01b0393909316608081905260a05260c09490945260e09290925242600155610100919091526001600160401b039091166101205263ffffffff16610140526002805460ff60a01b19169055610111565b60008060008060008060c0878903121561009f57600080fd5b86516020880151604089015191975095506001600160a01b03811681146100c557600080fd5b6060880151608089015191955093506001600160401b03811681146100e957600080fd5b60a088015190925063ffffffff8116811461010357600080fd5b809150509295509295509295565b60805160a05160c05160e051610100516101205161014051610d5f6101946000396000818161030c01526105af0152600081816102cb01526105780152600081816102770152610552015260008181610244015261069601526000818160fc0152610423015260006105ed01526000818161036101526103a30152610d5f6000f3fe6080604052600436106100e85760003560e01c80636e04ff0d1161008a578063c1c244e811610059578063c1c244e81461029b578063de3d9fb7146102b0578063de8be8e7146102f5578063e55ae4e81461033657600080fd5b80636e04ff0d146101e55780638b5b9ccc1461021357806391ad27b414610235578063c19dd76b1461026857600080fd5b80631fe543e3116100c65780631fe543e3146101695780632cfcc5391461018b5780634585e33b14610193578063473f1ddc146101b357600080fd5b806309bc33a7146100ed578063115cbaf51461012f57806312065fe014610156575b600080fd5b3480156100f957600080fd5b507f00000000000000000000000000000000000000000000000000000000000000005b6040519081526020015b60405180910390f35b34801561013b57600080fd5b50600254600160a01b900460ff1660405161012691906109ba565b34801561016257600080fd5b504761011c565b34801561017557600080fd5b50610189610184366004610a15565b610356565b005b6101896103e3565b34801561019f57600080fd5b506101896101ae366004610ac7565b6104ce565b3480156101bf57600080fd5b506002546001600160a01b03165b6040516001600160a01b039091168152602001610126565b3480156101f157600080fd5b50610205610200366004610b39565b61068e565b604051610126929190610bce565b34801561021f57600080fd5b5061022861073a565b6040516101269190610c27565b34801561024157600080fd5b507f000000000000000000000000000000000000000000000000000000000000000061011c565b34801561027457600080fd5b507f000000000000000000000000000000000000000000000000000000000000000061011c565b3480156102a757600080fd5b5060015461011c565b3480156102bc57600080fd5b5060405167ffffffffffffffff7f0000000000000000000000000000000000000000000000000000000000000000168152602001610126565b34801561030157600080fd5b5060405163ffffffff7f0000000000000000000000000000000000000000000000000000000000000000168152602001610126565b34801561034257600080fd5b506101cd610351366004610c74565b61079c565b336001600160a01b037f000000000000000000000000000000000000000000000000000000000000000016146103d55760405163073e64fd60e21b81523360048201526001600160a01b037f00000000000000000000000000000000000000000000000000000000000000001660248201526044015b60405180910390fd5b6103df82826107cb565b5050565b6000600254600160a01b900460ff16600181111561040357610403610982565b146104215760405163349289c560e21b815260040160405180910390fd5b7f00000000000000000000000000000000000000000000000000000000000000003410156104625760405163b7b5828760e01b815260040160405180910390fd5b600080546001810182558180527f290decd9548b62a8d60345a988386fc84ba6bc95484008f6362f93160ef3e5630180546001600160a01b0319163390811790915560405190917f819fbd717c9d0b421352c5116a644ca68ba176960c33f406f08d98a27370ca2791a2565b60006104e86040518060200160405280600081525061068e565b5090508061052e57600054600254600154479291600160a01b900460ff16906105119042610c8d565b6040516374bc59e760e01b81526004016103cc9493929190610cae565b60028054600160a01b60ff60a01b199091161790556040516305d3b1d360e41b81527f000000000000000000000000000000000000000000000000000000000000000060048201527f000000000000000000000000000000000000000000000000000000000000000067ffffffffffffffff166024820152600360448201527f000000000000000000000000000000000000000000000000000000000000000063ffffffff166064820152600160848201526000906001600160a01b037f00000000000000000000000000000000000000000000000000000000000000001690635d3b1d309060a4016020604051808303816000875af1158015610636573d6000803e3d6000fd5b505050506040513d601f19601f8201168201806040525081019061065a9190610cd8565b60405190915081907fcd6e45c8998311cab7e9d4385596cac867e20a0587194b954fa3a731c93ce78b90600090a250505050565b6000606060007f0000000000000000000000000000000000000000000000000000000000000000600154426106c39190610c8d565b1190506000600260149054906101000a900460ff1660018111156106e9576106e9610982565b600054901591504715159015158380156107005750825b80156107095750815b80156107125750805b60408051808201909152600381526203078360ec1b6020820152909890975095505050505050565b6060600080548060200260200160405190810160405280929190818152602001828054801561079257602002820191906000526020600020905b81546001600160a01b03168152600190910190602001808311610774575b5050505050905090565b60008082815481106107b0576107b0610cf1565b6000918252602090912001546001600160a01b031692915050565b600080548251839083906107e1576107e1610cf1565b60200260200101516107f39190610d07565b9050600080828154811061080957610809610cf1565b600091825260208083209190910154600280546001600160a81b0319166001600160a01b03909216918217905560408051848152928301908190529151909350610854929190610908565b50426001556040516001600160a01b038216907fb112587e57bfa970257f3d54fc52859c6300f6bd7a982462c320fed45c2530ed90600090a26000816001600160a01b03164760405160006040518083038185875af1925050503d80600081146108da576040519150601f19603f3d011682016040523d82523d6000602084013e6108df565b606091505b505090508061090157604051631e1873a560e11b815260040160405180910390fd5b5050505050565b82805482825590600052602060002090810192821561095d579160200282015b8281111561095d57825182546001600160a01b0319166001600160a01b03909116178255602090920191600190910190610928565b5061096992915061096d565b5090565b5b80821115610969576000815560010161096e565b634e487b7160e01b600052602160045260246000fd5b600281106109b657634e487b7160e01b600052602160045260246000fd5b9052565b602081016109c88284610998565b92915050565b634e487b7160e01b600052604160045260246000fd5b604051601f8201601f1916810167ffffffffffffffff81118282101715610a0d57610a0d6109ce565b604052919050565b60008060408385031215610a2857600080fd5b8235915060208084013567ffffffffffffffff80821115610a4857600080fd5b818601915086601f830112610a5c57600080fd5b813581811115610a6e57610a6e6109ce565b8060051b9150610a7f8483016109e4565b8181529183018401918481019089841115610a9957600080fd5b938501935b83851015610ab757843582529385019390850190610a9e565b8096505050505050509250929050565b60008060208385031215610ada57600080fd5b823567ffffffffffffffff80821115610af257600080fd5b818501915085601f830112610b0657600080fd5b813581811115610b1557600080fd5b866020828501011115610b2757600080fd5b60209290920196919550909350505050565b60006020808385031215610b4c57600080fd5b823567ffffffffffffffff80821115610b6457600080fd5b818501915085601f830112610b7857600080fd5b813581811115610b8a57610b8a6109ce565b610b9c601f8201601f191685016109e4565b91508082528684828501011115610bb257600080fd5b8084840185840137600090820190930192909252509392505050565b82151581526000602060406020840152835180604085015260005b81811015610c0557858101830151858201606001528201610be9565b506000606082860101526060601f19601f830116850101925050509392505050565b6020808252825182820181905260009190848201906040850190845b81811015610c685783516001600160a01b031683529284019291840191600101610c43565b50909695505050505050565b600060208284031215610c8657600080fd5b5035919050565b818103818111156109c857634e487b7160e01b600052601160045260246000fd5b8481526020810184905260808101610cc96040830185610998565b82606083015295945050505050565b600060208284031215610cea57600080fd5b5051919050565b634e487b7160e01b600052603260045260246000fd5b600082610d2457634e487b7160e01b600052601260045260246000fd5b50069056fea2646970667358221220f0faf700cbd296635798ea3c7dece0c796151a65cb32d85412ac30af21c86c4164736f6c63430008180033000000000000000000000000000000000000000000000000002386f26fc10000000000000000000000000000000000000000000000000000000000000000001e0000000000000000000000007a1bac17ccc5b313516c5e16fb24f7659aa5ebed4b09e658ed251bcafeebbc69400383d49f344ace09b9576fe248bb02c003fe9f0000000000000000000000000000000000000000000000000000000000001d3100000000000000000000000000000000000000000000000000000000002625a0",
        "nonce": "0x15",
        "accessList": []
      },
      "additionalContracts": [],
      "isFixedGasLimit": false
    },
    {
      "hash": "0x371a337dfd2077544b7d9b96a7d42a4be8ba8216574aa323607474fa93c5c787",
      "transactionType": "CALL",
      "contractName": null,
      "contractAddress": "0x7a1BaC17Ccc5b313516C5E16fb24f7659aA5ebed",
      "function": "addConsumer(uint64,address)",
      "arguments": [
        "7473",
        "0xC558b2592943cD46063Bf316F6bF238BA165588C"
      ],
      "transaction": {
        "type": "0x02",
        "from": "0xaf624715303fcdec70e915b6e8c102428f657560",
        "to": "0x7a1bac17ccc5b313516c5e16fb24f7659aa5ebed",
        "gas": "0x21eb0",
        "value": "0x0",
        "data": "0x7341c10c0000000000000000000000000000000000000000000000000000000000001d31000000000000000000000000c558b2592943cd46063bf316f6bf238ba165588c",
        "nonce": "0x16",
        "accessList": []
      },
      "additionalContracts": [],
      "isFixedGasLimit": false
    }
  ],
  "receipts": [
    {
      "transactionHash": "0xd24b548daafb8e2fa002a0dccb6e1537568e9e60803a9eebb84aa309b9a8c90a",
      "transactionIndex": "0x0",
      "blockHash": "0xdde7ccf11bd6afd180bfa7f4e47ce7b9f2be70b16d8ebd571a7a17aa39472896",
      "blockNumber": "0x2cf232a",
      "from": "0xaf624715303fcdec70e915B6E8c102428f657560",
      "to": null,
      "cumulativeGasUsed": "0x137049",
      "gasUsed": "0x137049",
      "contractAddress": "0xe1bb27132F53Abb542D3Acb79bDDc482F5e46d85",
      "logs": [
        {
          "address": "0x0000000000000000000000000000000000001010",
          "topics": [
            "0x4dfe1bbbcf077ddc3e01291eea2d5c70c2b422b415d95645b9adcfd678cb1d63",
            "0x0000000000000000000000000000000000000000000000000000000000001010",
            "0x000000000000000000000000af624715303fcdec70e915b6e8c102428f657560",
            "0x000000000000000000000000f903ba9e006193c1527bfbe65fe2123704ea3f99"
          ],
          "data": "0x0000000000000000000000000000000000000000000000000087c6f3456c0c0000000000000000000000000000000000000000000000000006a40454b279e9a20000000000000000000000000000000000000000000013b03b7fc122f36133ff000000000000000000000000000000000000000000000000061c3d616d0ddda20000000000000000000000000000000000000000000013b03c07881638cd3fff",
          "blockHash": "0xdde7ccf11bd6afd180bfa7f4e47ce7b9f2be70b16d8ebd571a7a17aa39472896",
          "blockNumber": "0x2cf232a",
          "transactionHash": "0xd24b548daafb8e2fa002a0dccb6e1537568e9e60803a9eebb84aa309b9a8c90a",
          "transactionIndex": "0x0",
          "logIndex": "0x0",
          "removed": false
        }
      ],
      "status": "0x1",
      "logsBloom": "0x00000000000000000000000000000000000000000000000000000010000000000000000000000020000000000000000000008000000000000000000000000000000000000000000000000000000000800000000000000000000100000000000000000000000000000000000000000000000000000000000080000000000000000000000000000000000000000000000000000000000000000000000000000100200000000000000000000000000000000000000000000000000000000001004000000000000000000001000000000000000000000000000000100000001000000000020000000000000000000000000000000000000000000000000000100000",
      "type": "0x2",
      "effectiveGasPrice": "0x6fc23ac10"
    },
    {
      "transactionHash": "0x8887e59a0541036f9244e7d1ae94677c8f161f86b39e3d7e4760e8e74988f430",
      "transactionIndex": "0x1",
      "blockHash": "0xdde7ccf11bd6afd180bfa7f4e47ce7b9f2be70b16d8ebd571a7a17aa39472896",
      "blockNumber": "0x2cf232a",
      "from": "0xaf624715303fcdec70e915B6E8c102428f657560",
      "to": "0x7a1BaC17Ccc5b313516C5E16fb24f7659aA5ebed",
      "cumulativeGasUsed": "0x1459d3",
      "gasUsed": "0xe98a",
      "contractAddress": null,
      "logs": [
        {
          "address": "0x7a1BaC17Ccc5b313516C5E16fb24f7659aA5ebed",
          "topics": [
            "0x464722b4166576d3dcbba877b999bc35cf911f4eaf434b7eba68fa113951d0bf",
            "0x0000000000000000000000000000000000000000000000000000000000001d31"
          ],
          "data": "0x000000000000000000000000af624715303fcdec70e915b6e8c102428f657560",
          "blockHash": "0xdde7ccf11bd6afd180bfa7f4e47ce7b9f2be70b16d8ebd571a7a17aa39472896",
          "blockNumber": "0x2cf232a",
          "transactionHash": "0x8887e59a0541036f9244e7d1ae94677c8f161f86b39e3d7e4760e8e74988f430",
          "transactionIndex": "0x1",
          "logIndex": "0x1",
          "removed": false
        },
        {
          "address": "0x0000000000000000000000000000000000001010",
          "topics": [
            "0x4dfe1bbbcf077ddc3e01291eea2d5c70c2b422b415d95645b9adcfd678cb1d63",
            "0x0000000000000000000000000000000000000000000000000000000000001010",
            "0x000000000000000000000000af624715303fcdec70e915b6e8c102428f657560",
            "0x000000000000000000000000f903ba9e006193c1527bfbe65fe2123704ea3f99"
          ],
          "data": "0x00000000000000000000000000000000000000000000000000065f4062c6b800000000000000000000000000000000000000000000000000061c3d616bd6d9120000000000000000000000000000000000000000000013b03c07881638cd3fff0000000000000000000000000000000000000000000000000615de21091021120000000000000000000000000000000000000000000013b03c0de7569b93f7ff",
          "blockHash": "0xdde7ccf11bd6afd180bfa7f4e47ce7b9f2be70b16d8ebd571a7a17aa39472896",
          "blockNumber": "0x2cf232a",
          "transactionHash": "0x8887e59a0541036f9244e7d1ae94677c8f161f86b39e3d7e4760e8e74988f430",
          "transactionIndex": "0x1",
          "logIndex": "0x2",
          "removed": false
        }
      ],
      "status": "0x1",
      "logsBloom": "0x00000000000000000000010000000000040000000000000000000010000000000100000000000020000000000000000020008000000000000000000000000000000000000000000000000000000000800000000000000000000100000000000000000080000000000000000000000000000000000000000080000000000000000000000000000000000000000000000000000000000000000000000000000100200000000000000000000000000000000000000000000000000000000001004000000000000000200001000000020000000000000000000002100000001000000000020000000000000000000000000000004000000000000000000000100000",
      "type": "0x2",
      "effectiveGasPrice": "0x6fc23ac10"
    },
    {
      "transactionHash": "0xd1b824f89e51541a54ec05ed533fcf1cf57cc89b8a08dcea96fea200965f1ca0",
      "transactionIndex": "0x2",
      "blockHash": "0xdde7ccf11bd6afd180bfa7f4e47ce7b9f2be70b16d8ebd571a7a17aa39472896",
      "blockNumber": "0x2cf232a",
      "from": "0xaf624715303fcdec70e915B6E8c102428f657560",
      "to": "0x326C977E6efc84E512bB9C30f76E30c160eD06FB",
      "cumulativeGasUsed": "0x15842d",
      "gasUsed": "0x12a5a",
      "contractAddress": null,
      "logs": [
        {
          "address": "0x326C977E6efc84E512bB9C30f76E30c160eD06FB",
          "topics": [
            "0xddf252ad1be2c89b69c2b068fc378daa952ba7f163c4a11628f55a4df523b3ef",
            "0x000000000000000000000000af624715303fcdec70e915b6e8c102428f657560",
            "0x0000000000000000000000007a1bac17ccc5b313516c5e16fb24f7659aa5ebed"
          ],
          "data": "0x0000000000000000000000000000000000000000000000004563918244f40000",
          "blockHash": "0xdde7ccf11bd6afd180bfa7f4e47ce7b9f2be70b16d8ebd571a7a17aa39472896",
          "blockNumber": "0x2cf232a",
          "transactionHash": "0xd1b824f89e51541a54ec05ed533fcf1cf57cc89b8a08dcea96fea200965f1ca0",
          "transactionIndex": "0x2",
          "logIndex": "0x3",
          "removed": false
        },
        {
          "address": "0x326C977E6efc84E512bB9C30f76E30c160eD06FB",
          "topics": [
            "0xe19260aff97b920c7df27010903aeb9c8d2be5d310a2c67824cf3f15396e4c16",
            "0x000000000000000000000000af624715303fcdec70e915b6e8c102428f657560",
            "0x0000000000000000000000007a1bac17ccc5b313516c5e16fb24f7659aa5ebed"
          ],
          "data": "0x0000000000000000000000000000000000000000000000004563918244f40000000000000000000000000000000000000000000000000000000000000000004000000000000000000000000000000000000000000000000000000000000000200000000000000000000000000000000000000000000000000000000000001d31",
          "blockHash": "0xdde7ccf11bd6afd180bfa7f4e47ce7b9f2be70b16d8ebd571a7a17aa39472896",
          "blockNumber": "0x2cf232a",
          "transactionHash": "0xd1b824f89e51541a54ec05ed533fcf1cf57cc89b8a08dcea96fea200965f1ca0",
          "transactionIndex": "0x2",
          "logIndex": "0x4",
          "removed": false
        },
        {
          "address": "0x7a1BaC17Ccc5b313516C5E16fb24f7659aA5ebed",
          "topics": [
            "0xd39ec07f4e209f627a4c427971473820dc129761ba28de8906bd56f57101d4f8",
            "0x0000000000000000000000000000000000000000000000000000000000001d31"
          ],
          "data": "0x00000000000000000000000000000000000000000000000000000000000000000000000000000000000000000000000000000000000000004563918244f40000",
          "blockHash": "0xdde7ccf11bd6afd180bfa7f4e47ce7b9f2be70b16d8ebd571a7a17aa39472896",
          "blockNumber": "0x2cf232a",
          "transactionHash": "0xd1b824f89e51541a54ec05ed533fcf1cf57cc89b8a08dcea96fea200965f1ca0",
          "transactionIndex": "0x2",
          "logIndex": "0x5",
          "removed": false
        },
        {
          "address": "0x0000000000000000000000000000000000001010",
          "topics": [
            "0x4dfe1bbbcf077ddc3e01291eea2d5c70c2b422b415d95645b9adcfd678cb1d63",
            "0x0000000000000000000000000000000000000000000000000000000000001010",
            "0x000000000000000000000000af624715303fcdec70e915b6e8c102428f657560",
            "0x000000000000000000000000f903ba9e006193c1527bfbe65fe2123704ea3f99"
          ],
          "data": "0x000000000000000000000000000000000000000000000000000823f62ac278000000000000000000000000000000000000000000000000000615de21090188720000000000000000000000000000000000000000000013b03c0de7569b93f7ff000000000000000000000000000000000000000000000000060dba2ade3f10720000000000000000000000000000000000000000000013b03c160b4cc6566fff",
          "blockHash": "0xdde7ccf11bd6afd180bfa7f4e47ce7b9f2be70b16d8ebd571a7a17aa39472896",
          "blockNumber": "0x2cf232a",
          "transactionHash": "0xd1b824f89e51541a54ec05ed533fcf1cf57cc89b8a08dcea96fea200965f1ca0",
          "transactionIndex": "0x2",
          "logIndex": "0x6",
          "removed": false
        }
      ],
      "status": "0x1",
      "logsBloom": "0x00000000000000040000000000000000040000000000000200000010020000000000000000000020000000000000000020008000000000000000000000000000000000000000000000000008000000800000000000000000000120000000000000000080000000000000000000000000000000000000000080000010000000000000004000000000000000000000000010000020000000000000000400000100200000000000000000000000000000000000000000000000000400000001004000000002000000008001000000020000000000000000000002100000001000000800020000000000001000000000000000004000000000000000000000100000",
      "type": "0x2",
      "effectiveGasPrice": "0x6fc23ac10"
    },
    {
      "transactionHash": "0x65ba117edd288cbffba40a0b6ab10771ccac5438d56016bb1e94499705dda9ec",
      "transactionIndex": "0x1",
      "blockHash": "0x0e28a758105669df77c6f3bbce3b7ddc2545ae0ee3cbc5ff6cb0ba598c20a45c",
      "blockNumber": "0x2cf232b",
      "from": "0xaf624715303fcdec70e915B6E8c102428f657560",
      "to": null,
      "cumulativeGasUsed": "0x14cc97",
      "gasUsed": "0xc82b2",
      "contractAddress": "0xC558b2592943cD46063Bf316F6bF238BA165588C",
      "logs": [
        {
          "address": "0x0000000000000000000000000000000000001010",
          "topics": [
            "0x4dfe1bbbcf077ddc3e01291eea2d5c70c2b422b415d95645b9adcfd678cb1d63",
            "0x0000000000000000000000000000000000000000000000000000000000001010",
            "0x000000000000000000000000af624715303fcdec70e915b6e8c102428f657560",
            "0x000000000000000000000000f903ba9e006193c1527bfbe65fe2123704ea3f99"
          ],
          "data": "0x000000000000000000000000000000000000000000000000005762917e259800000000000000000000000000000000000000000000000000060dba2ade2c6ad20000000000000000000000000000000000000000000013b03c5c66520dcc7fae00000000000000000000000000000000000000000000000005b657996006d2d20000000000000000000000000000000000000000000013b03cb3c8e38bf217ae",
          "blockHash": "0x0e28a758105669df77c6f3bbce3b7ddc2545ae0ee3cbc5ff6cb0ba598c20a45c",
          "blockNumber": "0x2cf232b",
          "transactionHash": "0x65ba117edd288cbffba40a0b6ab10771ccac5438d56016bb1e94499705dda9ec",
          "transactionIndex": "0x1",
          "logIndex": "0x1",
          "removed": false
        }
      ],
      "status": "0x1",
      "logsBloom": "0x00000000000000000000000000000000000000000000000000000010000000000000000000000020000000000000000000008000000000000000000000000000000000000000000000000000000000800000000000000000000100000000000000000000000000000000000000000000000000000000000080000000000000000000000000000000000000000000000000000000000000000000000000000100200000000000000000000000000000000000000000000000000000000001004000000000000000000001000000000000000000000000000000100000001000000000020000000000000000000000000000000000000000000000000000100000",
      "type": "0x2",
      "effectiveGasPrice": "0x6fc23ac10"
    },
    {
      "transactionHash": "0x371a337dfd2077544b7d9b96a7d42a4be8ba8216574aa323607474fa93c5c787",
      "transactionIndex": "0x2",
      "blockHash": "0x0e28a758105669df77c6f3bbce3b7ddc2545ae0ee3cbc5ff6cb0ba598c20a45c",
      "blockNumber": "0x2cf232b",
      "from": "0xaf624715303fcdec70e915B6E8c102428f657560",
      "to": "0x7a1BaC17Ccc5b313516C5E16fb24f7659aA5ebed",
      "cumulativeGasUsed": "0x163fa9",
      "gasUsed": "0x17312",
      "contractAddress": null,
      "logs": [
        {
          "address": "0x7a1BaC17Ccc5b313516C5E16fb24f7659aA5ebed",
          "topics": [
            "0x43dc749a04ac8fb825cbd514f7c0e13f13bc6f2ee66043b76629d51776cff8e0",
            "0x0000000000000000000000000000000000000000000000000000000000001d31"
          ],
          "data": "0x000000000000000000000000c558b2592943cd46063bf316f6bf238ba165588c",
          "blockHash": "0x0e28a758105669df77c6f3bbce3b7ddc2545ae0ee3cbc5ff6cb0ba598c20a45c",
          "blockNumber": "0x2cf232b",
          "transactionHash": "0x371a337dfd2077544b7d9b96a7d42a4be8ba8216574aa323607474fa93c5c787",
          "transactionIndex": "0x2",
          "logIndex": "0x2",
          "removed": false
        },
        {
          "address": "0x0000000000000000000000000000000000001010",
          "topics": [
            "0x4dfe1bbbcf077ddc3e01291eea2d5c70c2b422b415d95645b9adcfd678cb1d63",
            "0x0000000000000000000000000000000000000000000000000000000000001010",
            "0x000000000000000000000000af624715303fcdec70e915b6e8c102428f657560",
            "0x000000000000000000000000f903ba9e006193c1527bfbe65fe2123704ea3f99"
          ],
          "data": "0x000000000000000000000000000000000000000000000000000a1fe56cc6180000000000000000000000000000000000000000000000000005b657995f3ea7b20000000000000000000000000000000000000000000013b03cb3c8e38bf217ae00000000000000000000000000000000000000000000000005ac37b3f2788fb20000000000000000000000000000000000000000000013b03cbde8c8f8b82fae",
          "blockHash": "0x0e28a758105669df77c6f3bbce3b7ddc2545ae0ee3cbc5ff6cb0ba598c20a45c",
          "blockNumber": "0x2cf232b",
          "transactionHash": "0x371a337dfd2077544b7d9b96a7d42a4be8ba8216574aa323607474fa93c5c787",
          "transactionIndex": "0x2",
          "logIndex": "0x3",
          "removed": false
        }
      ],
      "status": "0x1",
      "logsBloom": "0x00000000000000000000000000000000040000000000000000000010000000000000000000000020000000000000000020008000000000000000000000000000000000000000000000000000000000800000000000000000000100000000000000000080000080000000000000000000000000000000000080000000000000000000000000000000000000000000000000000000000000000000000000000100200000000000000000000080000000000000000000000000000000000001004000000000000000000001000000020000000000000000000002120000001000000000020000000000000000000000000000004000000000000000000000100000",
      "type": "0x2",
      "effectiveGasPrice": "0x6fc23ac10"
    }
  ],
  "libraries": [
    "lib/foundry-devops/src/DevOpsTools.sol:DevOpsTools:0xe1bb27132F53Abb542D3Acb79bDDc482F5e46d85"
  ],
  "pending": [],
  "returns": {
    "0": {
      "internal_type": "contract Raffle",
      "value": "0xC558b2592943cD46063Bf316F6bF238BA165588C"
    },
    "1": {
      "internal_type": "contract HelperConfig",
      "value": "0xC7f2Cf4845C6db0e1a1e91ED41Bcd0FcC1b0E141"
    }
  },
  "timestamp": 1710621294,
  "chain": 80001,
  "commit": "8359f0f"
}